{
  "_format": "hh-sol-artifact-1",
  "contractName": "CertificationRegistryv2",
  "sourceName": "contracts/CertificationRegistry.sol",
  "abi": [
    {
      "inputs": [],
      "stateMutability": "nonpayable",
      "type": "constructor"
    },
    {
      "inputs": [
        {
          "internalType": "address",
          "name": "target",
          "type": "address"
        }
      ],
      "name": "AddressEmptyCode",
      "type": "error"
    },
    {
      "inputs": [
        {
          "internalType": "address",
          "name": "implementation",
          "type": "address"
        }
      ],
      "name": "ERC1967InvalidImplementation",
      "type": "error"
    },
    {
      "inputs": [],
      "name": "ERC1967NonPayable",
      "type": "error"
    },
    {
      "inputs": [],
      "name": "FailedInnerCall",
      "type": "error"
    },
    {
      "inputs": [],
      "name": "InvalidInitialization",
      "type": "error"
    },
    {
      "inputs": [],
      "name": "NotInitializing",
      "type": "error"
    },
    {
      "inputs": [
        {
          "internalType": "address",
          "name": "owner",
          "type": "address"
        }
      ],
      "name": "OwnableInvalidOwner",
      "type": "error"
    },
    {
      "inputs": [
        {
          "internalType": "address",
          "name": "account",
          "type": "address"
        }
      ],
      "name": "OwnableUnauthorizedAccount",
      "type": "error"
    },
    {
      "inputs": [],
      "name": "UUPSUnauthorizedCallContext",
      "type": "error"
    },
    {
      "inputs": [
        {
          "internalType": "bytes32",
          "name": "slot",
          "type": "bytes32"
        }
      ],
      "name": "UUPSUnsupportedProxiableUUID",
      "type": "error"
    },
    {
      "anonymous": false,
      "inputs": [
        {
          "indexed": false,
          "internalType": "uint64",
          "name": "version",
          "type": "uint64"
        }
      ],
      "name": "Initialized",
      "type": "event"
    },
    {
      "anonymous": false,
      "inputs": [
        {
          "indexed": true,
          "internalType": "address",
          "name": "previousOwner",
          "type": "address"
        },
        {
          "indexed": true,
          "internalType": "address",
          "name": "newOwner",
          "type": "address"
        }
      ],
      "name": "OwnershipTransferred",
      "type": "event"
    },
    {
      "anonymous": false,
      "inputs": [
        {
          "indexed": true,
          "internalType": "address",
          "name": "implementation",
          "type": "address"
        }
      ],
      "name": "Upgraded",
      "type": "event"
    },
    {
      "inputs": [],
      "name": "UPGRADE_INTERFACE_VERSION",
      "outputs": [
        {
          "internalType": "string",
          "name": "",
          "type": "string"
        }
      ],
      "stateMutability": "view",
      "type": "function"
    },
    {
      "inputs": [
        {
          "internalType": "bytes32",
          "name": "dataHash",
          "type": "bytes32"
        },
        {
          "internalType": "uint256",
          "name": "appId",
          "type": "uint256"
        },
        {
          "internalType": "uint256",
          "name": "amount",
          "type": "uint256"
        }
      ],
      "name": "allowDataComputation",
      "outputs": [],
      "stateMutability": "payable",
      "type": "function"
    },
    {
      "inputs": [
        {
          "internalType": "bytes32",
          "name": "",
          "type": "bytes32"
        },
        {
          "internalType": "uint256",
          "name": "",
          "type": "uint256"
        }
      ],
      "name": "dataPermissions",
      "outputs": [
        {
          "internalType": "uint256",
          "name": "",
          "type": "uint256"
        }
      ],
      "stateMutability": "view",
      "type": "function"
    },
    {
      "inputs": [
        {
          "internalType": "address",
          "name": "walletId",
          "type": "address"
        },
        {
          "internalType": "bytes32",
          "name": "codeHash",
          "type": "bytes32"
        }
      ],
      "name": "getAppId",
      "outputs": [
        {
          "internalType": "uint256",
          "name": "",
          "type": "uint256"
        }
      ],
      "stateMutability": "view",
      "type": "function"
    },
    {
      "inputs": [
        {
          "internalType": "address",
          "name": "initialOwner",
          "type": "address"
        }
      ],
      "name": "initialize",
      "outputs": [],
      "stateMutability": "nonpayable",
      "type": "function"
    },
    {
      "inputs": [
        {
          "internalType": "bytes32",
          "name": "dataHash",
          "type": "bytes32"
        },
        {
          "internalType": "uint256",
          "name": "appId",
          "type": "uint256"
        }
      ],
      "name": "isAllowedToCompute",
      "outputs": [
        {
          "internalType": "bool",
          "name": "",
          "type": "bool"
        }
      ],
      "stateMutability": "view",
      "type": "function"
    },
    {
      "inputs": [
        {
          "internalType": "address",
          "name": "walletId",
          "type": "address"
        },
        {
          "internalType": "uint256",
          "name": "appId",
          "type": "uint256"
        },
        {
          "internalType": "bytes32",
          "name": "currentCodeHash",
          "type": "bytes32"
        }
      ],
      "name": "isAppCertified",
      "outputs": [
        {
          "internalType": "bool",
          "name": "",
          "type": "bool"
        }
      ],
      "stateMutability": "view",
      "type": "function"
    },
    {
      "inputs": [],
      "name": "owner",
      "outputs": [
        {
          "internalType": "address",
          "name": "",
          "type": "address"
        }
      ],
      "stateMutability": "view",
      "type": "function"
    },
    {
      "inputs": [],
      "name": "proxiableUUID",
      "outputs": [
        {
          "internalType": "bytes32",
          "name": "",
          "type": "bytes32"
        }
      ],
      "stateMutability": "view",
      "type": "function"
    },
    {
      "inputs": [
        {
          "internalType": "address",
          "name": "walletId",
          "type": "address"
        },
        {
          "internalType": "bytes32",
          "name": "appCodeHash",
          "type": "bytes32"
        }
      ],
      "name": "registerApp",
      "outputs": [],
      "stateMutability": "nonpayable",
      "type": "function"
    },
    {
      "inputs": [
        {
          "internalType": "address",
          "name": "",
          "type": "address"
        },
        {
          "internalType": "uint256",
          "name": "",
          "type": "uint256"
        }
      ],
      "name": "registry",
      "outputs": [
        {
          "internalType": "uint256",
          "name": "applicationId",
          "type": "uint256"
        },
        {
          "internalType": "bytes32",
          "name": "codeHash",
          "type": "bytes32"
        },
        {
          "internalType": "bool",
          "name": "isCertified",
          "type": "bool"
        }
      ],
      "stateMutability": "view",
      "type": "function"
    },
    {
      "inputs": [],
      "name": "renounceOwnership",
      "outputs": [],
      "stateMutability": "nonpayable",
      "type": "function"
    },
    {
      "inputs": [
        {
          "internalType": "address",
          "name": "walletId",
          "type": "address"
        },
        {
          "internalType": "uint256",
          "name": "appId",
          "type": "uint256"
        }
      ],
      "name": "revokeCertification",
      "outputs": [],
      "stateMutability": "nonpayable",
      "type": "function"
    },
    {
      "inputs": [
        {
          "internalType": "address",
          "name": "newOwner",
          "type": "address"
        }
      ],
      "name": "transferOwnership",
      "outputs": [],
      "stateMutability": "nonpayable",
      "type": "function"
    },
    {
      "inputs": [
        {
          "internalType": "address",
          "name": "newImplementation",
          "type": "address"
        },
        {
          "internalType": "bytes",
          "name": "data",
          "type": "bytes"
        }
      ],
      "name": "upgradeToAndCall",
      "outputs": [],
      "stateMutability": "payable",
      "type": "function"
    }
  ],
  "bytecode": "0x60a06040523073ffffffffffffffffffffffffffffffffffffffff1660809073ffffffffffffffffffffffffffffffffffffffff168152503480156200004457600080fd5b50620000556200005b60201b60201c565b620001cf565b60006200006d6200016560201b60201c565b90508060000160089054906101000a900460ff1615620000b9576040517ff92ee8a900000000000000000000000000000000000000000000000000000000815260040160405180910390fd5b67ffffffffffffffff80168160000160009054906101000a900467ffffffffffffffff1667ffffffffffffffff1614620001625767ffffffffffffffff8160000160006101000a81548167ffffffffffffffff021916908367ffffffffffffffff1602179055507fc7f505b2f371ae2175ee4913f4499e1f2633a7b5936321eed1cdaeb6115181d267ffffffffffffffff604051620001599190620001b2565b60405180910390a15b50565b60007ff0c57e16840df040f15088dc2f81fe391c3923bec73e23a9662efc9c229c6a00905090565b600067ffffffffffffffff82169050919050565b620001ac816200018d565b82525050565b6000602082019050620001c96000830184620001a1565b92915050565b608051611dce620001f960003960008181610d6901528181610dbe0152610f790152611dce6000f3fe6080604052600436106100e85760003560e01c80638da5cb5b1161008a578063dd58d3af11610059578063dd58d3af146102c8578063eb65bea314610305578063f2fde38b14610342578063feb5864f1461036b576100e8565b80638da5cb5b1461020a578063ad3cb1cc14610235578063c4d66de814610260578063d05cb54514610289576100e8565b80634fc9f3d8116100c65780634fc9f3d81461016257806352d1902d1461018b578063715018a6146101b657806383ebb83e146101cd576100e8565b806333f24179146100ed57806339ebb58b146101095780634f1ef28614610146575b600080fd5b610107600480360381019061010291906115e7565b610394565b005b34801561011557600080fd5b50610130600480360381019061012b9190611698565b61041d565b60405161013d9190611706565b60405180910390f35b610160600480360381019061015b9190611867565b61058e565b005b34801561016e57600080fd5b50610189600480360381019061018491906118c3565b6105ad565b005b34801561019757600080fd5b506101a0610683565b6040516101ad9190611912565b60405180910390f35b3480156101c257600080fd5b506101cb6106b6565b005b3480156101d957600080fd5b506101f460048036038101906101ef919061192d565b6106ca565b604051610201919061197c565b60405180910390f35b34801561021657600080fd5b5061021f61083b565b60405161022c91906119a6565b60405180910390f35b34801561024157600080fd5b5061024a610873565b6040516102579190611a40565b60405180910390f35b34801561026c57600080fd5b5061028760048036038101906102829190611a62565b6108ac565b005b34801561029557600080fd5b506102b060048036038101906102ab91906118c3565b610a43565b6040516102bf93929190611a8f565b60405180910390f35b3480156102d457600080fd5b506102ef60048036038101906102ea9190611ac6565b610a97565b6040516102fc9190611706565b60405180910390f35b34801561031157600080fd5b5061032c60048036038101906103279190611ac6565b610b50565b604051610339919061197c565b60405180910390f35b34801561034e57600080fd5b5061036960048036038101906103649190611a62565b610b81565b005b34801561037757600080fd5b50610392600480360381019061038d919061192d565b610c07565b005b61039c610ce0565b8034146103de576040517f08c379a00000000000000000000000000000000000000000000000000000000081526004016103d590611b52565b60405180910390fd5b60026000848152602001908152602001600020829080600181540180825580915050600190039060005260206000200160009091909190915055505050565b600080600160008673ffffffffffffffffffffffffffffffffffffffff1673ffffffffffffffffffffffffffffffffffffffff168152602001908152602001600020805480602002602001604051908101604052809291908181526020016000905b828210156104e0578382906000526020600020906003020160405180606001604052908160008201548152602001600182015481526020016002820160009054906101000a900460ff1615151515815250508152602001906001019061047f565b50505050905060005b81518110156105805781818151811061050557610504611b72565b5b602002602001015160400151801561053a575081818151811061052b5761052a611b72565b5b60200260200101516000015185145b8015610563575081818151811061055457610553611b72565b5b60200260200101516020015184145b1561057357600192505050610587565b80806001019150506104e9565b5060009150505b9392505050565b610596610d67565b61059f82610e4d565b6105a98282610e58565b5050565b6105b5610ce0565b6000600160008473ffffffffffffffffffffffffffffffffffffffff1673ffffffffffffffffffffffffffffffffffffffff168152602001908152602001600020905060005b818054905081101561067d5781818154811061061a57610619611b72565b5b906000526020600020906003020160000154830361067057600082828154811061064757610646611b72565b5b906000526020600020906003020160020160006101000a81548160ff0219169083151502179055505b80806001019150506105fb565b50505050565b600061068d610f77565b7f360894a13ba1a3210667c828492db98dca3e2076cc3735a920a3ca505d382bbc60001b905090565b6106be610ce0565b6106c86000610ffe565b565b600080600160008573ffffffffffffffffffffffffffffffffffffffff1673ffffffffffffffffffffffffffffffffffffffff168152602001908152602001600020805480602002602001604051908101604052809291908181526020016000905b8282101561078d578382906000526020600020906003020160405180606001604052908160008201548152602001600182015481526020016002820160009054906101000a900460ff1615151515815250508152602001906001019061072c565b50505050905060005b81518110156107f957838282815181106107b3576107b2611b72565b5b602002602001015160200151036107ec578181815181106107d7576107d6611b72565b5b60200260200101516000015192505050610835565b8080600101915050610796565b506040517f08c379a000000000000000000000000000000000000000000000000000000000815260040161082c90611bed565b60405180910390fd5b92915050565b6000806108466110d5565b90508060000160009054906101000a900473ffffffffffffffffffffffffffffffffffffffff1691505090565b6040518060400160405280600581526020017f352e302e3000000000000000000000000000000000000000000000000000000081525081565b60006108b66110fd565b905060008160000160089054906101000a900460ff1615905060008260000160009054906101000a900467ffffffffffffffff1690506000808267ffffffffffffffff161480156109045750825b9050600060018367ffffffffffffffff16148015610939575060003073ffffffffffffffffffffffffffffffffffffffff163b145b905081158015610947575080155b1561097e576040517ff92ee8a900000000000000000000000000000000000000000000000000000000815260040160405180910390fd5b60018560000160006101000a81548167ffffffffffffffff021916908367ffffffffffffffff16021790555083156109ce5760018560000160086101000a81548160ff0219169083151502179055505b6109d786611125565b6109df611139565b8315610a3b5760008560000160086101000a81548160ff0219169083151502179055507fc7f505b2f371ae2175ee4913f4499e1f2633a7b5936321eed1cdaeb6115181d26001604051610a329190611c66565b60405180910390a15b505050505050565b60016020528160005260406000208181548110610a5f57600080fd5b9060005260206000209060030201600091509150508060000154908060010154908060020160009054906101000a900460ff16905083565b60008060026000858152602001908152602001600020805480602002602001604051908101604052809291908181526020018280548015610af757602002820191906000526020600020905b815481526020019060010190808311610ae3575b5050505050905060005b8151811015610b435783828281518110610b1e57610b1d611b72565b5b602002602001015103610b3657600192505050610b4a565b8080600101915050610b01565b5060009150505b92915050565b60026020528160005260406000208181548110610b6c57600080fd5b90600052602060002001600091509150505481565b610b89610ce0565b600073ffffffffffffffffffffffffffffffffffffffff168173ffffffffffffffffffffffffffffffffffffffff1603610bfb5760006040517f1e4fbdf7000000000000000000000000000000000000000000000000000000008152600401610bf291906119a6565b60405180910390fd5b610c0481610ffe565b50565b600080815480929190610c1990611cb0565b9190505550600160008373ffffffffffffffffffffffffffffffffffffffff1673ffffffffffffffffffffffffffffffffffffffff16815260200190815260200160002060405180606001604052806000548152602001838152602001600115158152509080600181540180825580915050600190039060005260206000209060030201600090919091909150600082015181600001556020820151816001015560408201518160020160006101000a81548160ff02191690831515021790555050505050565b610ce8611143565b73ffffffffffffffffffffffffffffffffffffffff16610d0661083b565b73ffffffffffffffffffffffffffffffffffffffff1614610d6557610d29611143565b6040517f118cdaa7000000000000000000000000000000000000000000000000000000008152600401610d5c91906119a6565b60405180910390fd5b565b7f000000000000000000000000000000000000000000000000000000000000000073ffffffffffffffffffffffffffffffffffffffff163073ffffffffffffffffffffffffffffffffffffffff161480610e1457507f000000000000000000000000000000000000000000000000000000000000000073ffffffffffffffffffffffffffffffffffffffff16610dfb61114b565b73ffffffffffffffffffffffffffffffffffffffff1614155b15610e4b576040517fe07c8dba00000000000000000000000000000000000000000000000000000000815260040160405180910390fd5b565b610e55610ce0565b50565b8173ffffffffffffffffffffffffffffffffffffffff166352d1902d6040518163ffffffff1660e01b8152600401602060405180830381865afa925050508015610ec057506040513d601f19601f82011682018060405250810190610ebd9190611d0d565b60015b610f0157816040517f4c9c8ce3000000000000000000000000000000000000000000000000000000008152600401610ef891906119a6565b60405180910390fd5b7f360894a13ba1a3210667c828492db98dca3e2076cc3735a920a3ca505d382bbc60001b8114610f6857806040517faa1d49a4000000000000000000000000000000000000000000000000000000008152600401610f5f9190611912565b60405180910390fd5b610f7283836111a2565b505050565b7f000000000000000000000000000000000000000000000000000000000000000073ffffffffffffffffffffffffffffffffffffffff163073ffffffffffffffffffffffffffffffffffffffff1614610ffc576040517fe07c8dba00000000000000000000000000000000000000000000000000000000815260040160405180910390fd5b565b60006110086110d5565b905060008160000160009054906101000a900473ffffffffffffffffffffffffffffffffffffffff169050828260000160006101000a81548173ffffffffffffffffffffffffffffffffffffffff021916908373ffffffffffffffffffffffffffffffffffffffff1602179055508273ffffffffffffffffffffffffffffffffffffffff168173ffffffffffffffffffffffffffffffffffffffff167f8be0079c531659141344cd1fd0a4f28419497f9722a3daafe3b4186f6b6457e060405160405180910390a3505050565b60007f9016d09d72d40fdae2fd8ceac6b6234c7706214fd39c1cd1e609a0528c199300905090565b60007ff0c57e16840df040f15088dc2f81fe391c3923bec73e23a9662efc9c229c6a00905090565b61112d611215565b61113681611255565b50565b611141611215565b565b600033905090565b60006111797f360894a13ba1a3210667c828492db98dca3e2076cc3735a920a3ca505d382bbc60001b6112db565b60000160009054906101000a900473ffffffffffffffffffffffffffffffffffffffff16905090565b6111ab826112e5565b8173ffffffffffffffffffffffffffffffffffffffff167fbc7cd75a20ee27fd9adebab32041f755214dbc6bffa90cc0225b39da2e5c2d3b60405160405180910390a26000815111156112085761120282826113b2565b50611211565b611210611436565b5b5050565b61121d611473565b611253576040517fd7e6bcf800000000000000000000000000000000000000000000000000000000815260040160405180910390fd5b565b61125d611215565b600073ffffffffffffffffffffffffffffffffffffffff168173ffffffffffffffffffffffffffffffffffffffff16036112cf5760006040517f1e4fbdf70000000000000000000000000000000000000000000000000000000081526004016112c691906119a6565b60405180910390fd5b6112d881610ffe565b50565b6000819050919050565b60008173ffffffffffffffffffffffffffffffffffffffff163b0361134157806040517f4c9c8ce300000000000000000000000000000000000000000000000000000000815260040161133891906119a6565b60405180910390fd5b8061136e7f360894a13ba1a3210667c828492db98dca3e2076cc3735a920a3ca505d382bbc60001b6112db565b60000160006101000a81548173ffffffffffffffffffffffffffffffffffffffff021916908373ffffffffffffffffffffffffffffffffffffffff16021790555050565b60606000808473ffffffffffffffffffffffffffffffffffffffff16846040516113dc9190611d81565b600060405180830381855af49150503d8060008114611417576040519150601f19603f3d011682016040523d82523d6000602084013e61141c565b606091505b509150915061142c858383611493565b9250505092915050565b6000341115611471576040517fb398979f00000000000000000000000000000000000000000000000000000000815260040160405180910390fd5b565b600061147d6110fd565b60000160089054906101000a900460ff16905090565b6060826114a8576114a382611522565b61151a565b600082511480156114d0575060008473ffffffffffffffffffffffffffffffffffffffff163b145b1561151257836040517f9996b31500000000000000000000000000000000000000000000000000000000815260040161150991906119a6565b60405180910390fd5b81905061151b565b5b9392505050565b6000815111156115355780518082602001fd5b6040517f1425ea4200000000000000000000000000000000000000000000000000000000815260040160405180910390fd5b6000604051905090565b600080fd5b600080fd5b6000819050919050565b61158e8161157b565b811461159957600080fd5b50565b6000813590506115ab81611585565b92915050565b6000819050919050565b6115c4816115b1565b81146115cf57600080fd5b50565b6000813590506115e1816115bb565b92915050565b600080600060608486031215611600576115ff611571565b5b600061160e8682870161159c565b935050602061161f868287016115d2565b9250506040611630868287016115d2565b9150509250925092565b600073ffffffffffffffffffffffffffffffffffffffff82169050919050565b60006116658261163a565b9050919050565b6116758161165a565b811461168057600080fd5b50565b6000813590506116928161166c565b92915050565b6000806000606084860312156116b1576116b0611571565b5b60006116bf86828701611683565b93505060206116d0868287016115d2565b92505060406116e18682870161159c565b9150509250925092565b60008115159050919050565b611700816116eb565b82525050565b600060208201905061171b60008301846116f7565b92915050565b600080fd5b600080fd5b6000601f19601f8301169050919050565b7f4e487b7100000000000000000000000000000000000000000000000000000000600052604160045260246000fd5b6117748261172b565b810181811067ffffffffffffffff821117156117935761179261173c565b5b80604052505050565b60006117a6611567565b90506117b2828261176b565b919050565b600067ffffffffffffffff8211156117d2576117d161173c565b5b6117db8261172b565b9050602081019050919050565b82818337600083830152505050565b600061180a611805846117b7565b61179c565b90508281526020810184848401111561182657611825611726565b5b6118318482856117e8565b509392505050565b600082601f83011261184e5761184d611721565b5b813561185e8482602086016117f7565b91505092915050565b6000806040838503121561187e5761187d611571565b5b600061188c85828601611683565b925050602083013567ffffffffffffffff8111156118ad576118ac611576565b5b6118b985828601611839565b9150509250929050565b600080604083850312156118da576118d9611571565b5b60006118e885828601611683565b92505060206118f9858286016115d2565b9150509250929050565b61190c8161157b565b82525050565b60006020820190506119276000830184611903565b92915050565b6000806040838503121561194457611943611571565b5b600061195285828601611683565b92505060206119638582860161159c565b9150509250929050565b611976816115b1565b82525050565b6000602082019050611991600083018461196d565b92915050565b6119a08161165a565b82525050565b60006020820190506119bb6000830184611997565b92915050565b600081519050919050565b600082825260208201905092915050565b60005b838110156119fb5780820151818401526020810190506119e0565b60008484015250505050565b6000611a12826119c1565b611a1c81856119cc565b9350611a2c8185602086016119dd565b611a358161172b565b840191505092915050565b60006020820190508181036000830152611a5a8184611a07565b905092915050565b600060208284031215611a7857611a77611571565b5b6000611a8684828501611683565b91505092915050565b6000606082019050611aa4600083018661196d565b611ab16020830185611903565b611abe60408301846116f7565b949350505050565b60008060408385031215611add57611adc611571565b5b6000611aeb8582860161159c565b9250506020611afc858286016115d2565b9150509250929050565b7f496e636f72726563742066656520706169640000000000000000000000000000600082015250565b6000611b3c6012836119cc565b9150611b4782611b06565b602082019050919050565b60006020820190508181036000830152611b6b81611b2f565b9050919050565b7f4e487b7100000000000000000000000000000000000000000000000000000000600052603260045260246000fd5b7f4170706c69636174696f6e204944206e6f7420666f756e640000000000000000600082015250565b6000611bd76018836119cc565b9150611be282611ba1565b602082019050919050565b60006020820190508181036000830152611c0681611bca565b9050919050565b6000819050919050565b600067ffffffffffffffff82169050919050565b6000819050919050565b6000611c50611c4b611c4684611c0d565b611c2b565b611c17565b9050919050565b611c6081611c35565b82525050565b6000602082019050611c7b6000830184611c57565b92915050565b7f4e487b7100000000000000000000000000000000000000000000000000000000600052601160045260246000fd5b6000611cbb826115b1565b91507fffffffffffffffffffffffffffffffffffffffffffffffffffffffffffffffff8203611ced57611cec611c81565b5b600182019050919050565b600081519050611d0781611585565b92915050565b600060208284031215611d2357611d22611571565b5b6000611d3184828501611cf8565b91505092915050565b600081519050919050565b600081905092915050565b6000611d5b82611d3a565b611d658185611d45565b9350611d758185602086016119dd565b80840191505092915050565b6000611d8d8284611d50565b91508190509291505056fea26469706673582212206a657fa7c65a599d870b4617da3f955b83543b56caa9e773e55e5c0a26a594fc64736f6c63430008180033",
  "linkReferences": {},
  "deployedLinkReferences": {}
}